{
  "contractName": "Cantina",
  "abi": [
    {
      "inputs": [
        {
          "internalType": "contract Fiducia",
          "name": "token",
          "type": "address"
        }
      ],
      "stateMutability": "nonpayable",
      "type": "constructor"
    },
    {
      "inputs": [
        {
          "internalType": "uint256",
          "name": "",
          "type": "uint256"
        }
      ],
      "name": "comissionDetails",
      "outputs": [
        {
          "internalType": "uint256",
          "name": "id",
          "type": "uint256"
        },
        {
          "internalType": "uint256",
          "name": "rate",
          "type": "uint256"
        },
        {
          "internalType": "uint256",
          "name": "timeHour",
          "type": "uint256"
        },
        {
          "internalType": "address",
          "name": "requestor",
          "type": "address"
        },
        {
          "internalType": "address",
          "name": "fulfiller",
          "type": "address"
        },
        {
          "internalType": "uint256",
          "name": "requestStatus",
          "type": "uint256"
        },
        {
          "internalType": "uint256",
          "name": "paymentStatus",
          "type": "uint256"
        },
        {
          "internalType": "uint256",
          "name": "completionStatus",
          "type": "uint256"
        }
      ],
      "stateMutability": "view",
      "type": "function",
      "constant": true
    },
    {
      "inputs": [],
      "name": "nrComissions",
      "outputs": [
        {
          "internalType": "uint256",
          "name": "",
          "type": "uint256"
        }
      ],
      "stateMutability": "view",
      "type": "function",
      "constant": true
    },
    {
      "inputs": [],
      "name": "nrProducts",
      "outputs": [
        {
          "internalType": "uint256",
          "name": "",
          "type": "uint256"
        }
      ],
      "stateMutability": "view",
      "type": "function",
      "constant": true
    },
    {
      "inputs": [
        {
          "internalType": "uint256",
          "name": "",
          "type": "uint256"
        }
      ],
      "name": "prodDetails",
      "outputs": [
        {
          "internalType": "uint256",
          "name": "id",
          "type": "uint256"
        },
        {
          "internalType": "uint256",
          "name": "price",
          "type": "uint256"
        },
        {
          "internalType": "address",
          "name": "owner",
          "type": "address"
        },
        {
          "internalType": "bool",
          "name": "purchased",
          "type": "bool"
        },
        {
          "internalType": "string",
          "name": "name",
          "type": "string"
        }
      ],
      "stateMutability": "view",
      "type": "function",
      "constant": true
    },
    {
      "inputs": [
        {
          "internalType": "address",
          "name": "",
          "type": "address"
        }
      ],
      "name": "userDetails",
      "outputs": [
        {
          "internalType": "uint256",
          "name": "completedComissions",
          "type": "uint256"
        },
        {
          "internalType": "bool",
          "name": "isActive",
          "type": "bool"
        }
      ],
      "stateMutability": "view",
      "type": "function",
      "constant": true
    },
    {
      "inputs": [
        {
          "internalType": "address",
          "name": "",
          "type": "address"
        }
      ],
      "name": "userType",
      "outputs": [
        {
          "internalType": "uint256",
          "name": "",
          "type": "uint256"
        }
      ],
      "stateMutability": "view",
      "type": "function",
      "constant": true
    },
    {
      "inputs": [
        {
          "internalType": "address",
          "name": "recv",
          "type": "address"
        }
      ],
      "name": "doStuff",
      "outputs": [
        {
          "internalType": "address",
          "name": "",
          "type": "address"
        }
      ],
      "stateMutability": "nonpayable",
      "type": "function"
    },
    {
      "inputs": [],
      "name": "getValue",
      "outputs": [
        {
          "internalType": "string",
          "name": "",
          "type": "string"
        }
      ],
      "stateMutability": "view",
      "type": "function",
      "constant": true
    },
    {
      "inputs": [],
      "name": "registerCreator",
      "outputs": [],
      "stateMutability": "payable",
      "type": "function",
      "payable": true
    },
    {
      "inputs": [],
      "name": "registerCustomer",
      "outputs": [],
      "stateMutability": "nonpayable",
      "type": "function"
    },
    {
      "inputs": [
        {
          "internalType": "uint256",
          "name": "_id",
          "type": "uint256"
        }
      ],
      "name": "payComission",
      "outputs": [],
      "stateMutability": "payable",
      "type": "function",
      "payable": true
    },
    {
      "inputs": [
        {
          "internalType": "uint256",
          "name": "_rate",
          "type": "uint256"
        },
        {
          "internalType": "uint256",
          "name": "_hrs",
          "type": "uint256"
        },
        {
          "internalType": "address",
          "name": "_creator",
          "type": "address"
        }
      ],
      "name": "requestCommission",
      "outputs": [],
      "stateMutability": "nonpayable",
      "type": "function"
    },
    {
      "inputs": [
        {
          "internalType": "uint256",
          "name": "_id",
          "type": "uint256"
        }
      ],
      "name": "responseCommission",
      "outputs": [],
      "stateMutability": "nonpayable",
      "type": "function"
    },
    {
      "inputs": [
        {
          "internalType": "uint256",
          "name": "_id",
          "type": "uint256"
        }
      ],
      "name": "completeCommission",
      "outputs": [],
      "stateMutability": "nonpayable",
      "type": "function"
    },
    {
      "inputs": [
        {
          "internalType": "uint256",
          "name": "_price",
          "type": "uint256"
        },
        {
          "internalType": "string",
          "name": "_name",
          "type": "string"
        }
      ],
      "name": "createListing",
      "outputs": [],
      "stateMutability": "nonpayable",
      "type": "function"
    },
    {
      "inputs": [
        {
          "internalType": "uint256",
          "name": "_productID",
          "type": "uint256"
        }
      ],
      "name": "buy",
      "outputs": [],
      "stateMutability": "payable",
      "type": "function",
      "payable": true
    },
    {
      "inputs": [],
      "name": "balanceOfSC",
      "outputs": [
        {
          "internalType": "uint256",
          "name": "",
          "type": "uint256"
        }
      ],
      "stateMutability": "nonpayable",
      "type": "function"
    }
  ],
  "bytecode": "0x6080604052600060065560006007553480156200001b57600080fd5b5060405162001b6c38038062001b6c833981810160405281019062000041919062000204565b6040518060400160405280601181526020017f4173687261792041205372697061746869000000000000000000000000000000815250600190805190602001906200008e929190620000d6565b50806000806101000a81548173ffffffffffffffffffffffffffffffffffffffff021916908373ffffffffffffffffffffffffffffffffffffffff160217905550506200029b565b828054620000e49062000265565b90600052602060002090601f01602090048101928262000108576000855562000154565b82601f106200012357805160ff191683800117855562000154565b8280016001018555821562000154579182015b828111156200015357825182559160200191906001019062000136565b5b50905062000163919062000167565b5090565b5b808211156200018257600081600090555060010162000168565b5090565b600080fd5b600073ffffffffffffffffffffffffffffffffffffffff82169050919050565b6000620001b8826200018b565b9050919050565b6000620001cc82620001ab565b9050919050565b620001de81620001bf565b8114620001ea57600080fd5b50565b600081519050620001fe81620001d3565b92915050565b6000602082840312156200021d576200021c62000186565b5b60006200022d84828501620001ed565b91505092915050565b7f4e487b7100000000000000000000000000000000000000000000000000000000600052602260045260246000fd5b600060028204905060018216806200027e57607f821691505b6020821081141562000295576200029462000236565b5b50919050565b6118c180620002ab6000396000f3fe6080604052600436106100fe5760003560e01c80637cf9e57811610095578063d96a094a11610064578063d96a094a14610327578063e49375fc14610343578063e8c220fe1461036c578063f3ed6ef914610397578063fc852e1e146103c0576100fe565b80637cf9e5781461023e578063b5815dd114610269578063b83458b0146102ad578063c16defff146102ea576100fe565b806327357011116100d1578063273570111461018c57806348dec2a7146101a357806359bd1dd5146101e15780637c618c44146101fd576100fe565b80630c6c8fe814610103578063209652551461010d57806325605c6a146101385780632721072d14610163575b600080fd5b61010b6103e9565b005b34801561011957600080fd5b5061012261044a565b60405161012f91906111d4565b60405180910390f35b34801561014457600080fd5b5061014d6104dc565b60405161015a919061120f565b60405180910390f35b34801561016f57600080fd5b5061018a6004803603810190610185919061139f565b6104e4565b005b34801561019857600080fd5b506101a161065e565b005b3480156101af57600080fd5b506101ca60048036038101906101c59190611459565b6106aa565b6040516101d89291906114a1565b60405180910390f35b6101fb60048036038101906101f691906114ca565b6106db565b005b34801561020957600080fd5b50610224600480360381019061021f91906114ca565b610920565b604051610235959493929190611506565b60405180910390f35b34801561024a57600080fd5b50610253610a0b565b604051610260919061120f565b60405180910390f35b34801561027557600080fd5b50610290600480360381019061028b91906114ca565b610a11565b6040516102a4989796959493929190611560565b60405180910390f35b3480156102b957600080fd5b506102d460048036038101906102cf9190611459565b610a99565b6040516102e1919061120f565b60405180910390f35b3480156102f657600080fd5b50610311600480360381019061030c9190611459565b610ab1565b60405161031e91906115de565b60405180910390f35b610341600480360381019061033c91906114ca565b610b5f565b005b34801561034f57600080fd5b5061036a600480360381019061036591906115f9565b610d5e565b005b34801561037857600080fd5b50610381610f09565b60405161038e919061120f565b60405180910390f35b3480156103a357600080fd5b506103be60048036038101906103b991906114ca565b610f0f565b005b3480156103cc57600080fd5b506103e760048036038101906103e291906114ca565b610fe8565b005b60003390506001600260008373ffffffffffffffffffffffffffffffffffffffff1673ffffffffffffffffffffffffffffffffffffffff168152602001908152602001600020819055506000349050600a81101561044657600080fd5b5050565b6060600180546104599061167b565b80601f01602080910402602001604051908101604052809291908181526020018280546104859061167b565b80156104d25780601f106104a7576101008083540402835291602001916104d2565b820191906000526020600020905b8154815290600101906020018083116104b557829003601f168201915b5050505050905090565b600047905090565b6001600260003373ffffffffffffffffffffffffffffffffffffffff1673ffffffffffffffffffffffffffffffffffffffff168152602001908152602001600020541461053057600080fd5b6000821161053d57600080fd5b600081511161054b57600080fd5b60003390506007546004600060075481526020019081526020016000206000018190555082600460006007548152602001908152602001600020600101819055508060046000600754815260200190815260200160002060020160006101000a81548173ffffffffffffffffffffffffffffffffffffffff021916908373ffffffffffffffffffffffffffffffffffffffff160217905550600060046000600754815260200190815260200160002060020160146101000a81548160ff021916908315150217905550816004600060075481526020019081526020016000206003019080519060200190610640929190611098565b5060076000815480929190610654906116dc565b9190505550505050565b600033905060028060008373ffffffffffffffffffffffffffffffffffffffff1673ffffffffffffffffffffffffffffffffffffffff1681526020019081526020016000208190555050565b60036020528060005260406000206000915090508060000154908060010160009054906101000a900460ff16905082565b60028060003373ffffffffffffffffffffffffffffffffffffffff1673ffffffffffffffffffffffffffffffffffffffff168152602001908152602001600020541461072657600080fd5b60006005600083815260200190815260200160002060040160009054906101000a900473ffffffffffffffffffffffffffffffffffffffff1690503373ffffffffffffffffffffffffffffffffffffffff166005600084815260200190815260200160002060030160009054906101000a900473ffffffffffffffffffffffffffffffffffffffff1673ffffffffffffffffffffffffffffffffffffffff16146107cf57600080fd5b600033905060006005600085815260200190815260200160002060020154600560008681526020019081526020016000206001015461080e9190611725565b9050600160056000868152602001908152602001600020600601819055508273ffffffffffffffffffffffffffffffffffffffff166108fc829081150290604051600060405180830381858888f19350505050158015610872573d6000803e3d6000fd5b50600033905060008054906101000a900473ffffffffffffffffffffffffffffffffffffffff1673ffffffffffffffffffffffffffffffffffffffff166323b872dd8286856040518463ffffffff1660e01b81526004016108d59392919061177f565b6020604051808303816000875af11580156108f4573d6000803e3d6000fd5b505050506040513d601f19601f8201168201806040525081019061091891906117e2565b505050505050565b60046020528060005260406000206000915090508060000154908060010154908060020160009054906101000a900473ffffffffffffffffffffffffffffffffffffffff16908060020160149054906101000a900460ff16908060030180546109889061167b565b80601f01602080910402602001604051908101604052809291908181526020018280546109b49061167b565b8015610a015780601f106109d657610100808354040283529160200191610a01565b820191906000526020600020905b8154815290600101906020018083116109e457829003601f168201915b5050505050905085565b60075481565b60056020528060005260406000206000915090508060000154908060010154908060020154908060030160009054906101000a900473ffffffffffffffffffffffffffffffffffffffff16908060040160009054906101000a900473ffffffffffffffffffffffffffffffffffffffff16908060050154908060060154908060070154905088565b60026020528060005260406000206000915090505481565b60008033905060008054906101000a900473ffffffffffffffffffffffffffffffffffffffff1673ffffffffffffffffffffffffffffffffffffffff166323b872dd828560646040518463ffffffff1660e01b8152600401610b1593929190611854565b6020604051808303816000875af1158015610b34573d6000803e3d6000fd5b505050506040513d601f19601f82011682018060405250810190610b5891906117e2565b5050919050565b60028060003373ffffffffffffffffffffffffffffffffffffffff1673ffffffffffffffffffffffffffffffffffffffff1681526020019081526020016000205414610baa57600080fd5b6000600460008381526020019081526020016000206001015490506004600083815260200190815260200160002060020160149054906101000a900460ff1615610bf357600080fd5b60006004600084815260200190815260200160002060020160009054906101000a900473ffffffffffffffffffffffffffffffffffffffff169050336004600085815260200190815260200160002060020160006101000a81548173ffffffffffffffffffffffffffffffffffffffff021916908373ffffffffffffffffffffffffffffffffffffffff16021790555060016004600085815260200190815260200160002060020160146101000a81548160ff021916908315150217905550600033905060008054906101000a900473ffffffffffffffffffffffffffffffffffffffff1673ffffffffffffffffffffffffffffffffffffffff166323b872dd8284866040518463ffffffff1660e01b8152600401610d149392919061177f565b6020604051808303816000875af1158015610d33573d6000803e3d6000fd5b505050506040513d601f19601f82011682018060405250810190610d5791906117e2565b5050505050565b60028060003373ffffffffffffffffffffffffffffffffffffffff1673ffffffffffffffffffffffffffffffffffffffff1681526020019081526020016000205414610da957600080fd5b600654600560006006548152602001908152602001600020600001819055503360056000600654815260200190815260200160002060030160006101000a81548173ffffffffffffffffffffffffffffffffffffffff021916908373ffffffffffffffffffffffffffffffffffffffff1602179055508060056000600654815260200190815260200160002060040160006101000a81548173ffffffffffffffffffffffffffffffffffffffff021916908373ffffffffffffffffffffffffffffffffffffffff1602179055508260056000600654815260200190815260200160002060010181905550816005600060065481526020019081526020016000206002018190555060006005600060065481526020019081526020016000206005018190555060006005600060065481526020019081526020016000206007018190555060066000815480929190610eff906116dc565b9190505550505050565b60065481565b6001600260003373ffffffffffffffffffffffffffffffffffffffff1673ffffffffffffffffffffffffffffffffffffffff1681526020019081526020016000205414610f5b57600080fd5b3373ffffffffffffffffffffffffffffffffffffffff166005600083815260200190815260200160002060040160009054906101000a900473ffffffffffffffffffffffffffffffffffffffff1673ffffffffffffffffffffffffffffffffffffffff1614610fc957600080fd5b6001600560008381526020019081526020016000206005018190555050565b3373ffffffffffffffffffffffffffffffffffffffff166005600083815260200190815260200160002060040160009054906101000a900473ffffffffffffffffffffffffffffffffffffffff1673ffffffffffffffffffffffffffffffffffffffff161461105657600080fd5b600160056000838152602001908152602001600020600601541461107957600080fd5b6001600560008381526020019081526020016000206007018190555050565b8280546110a49061167b565b90600052602060002090601f0160209004810192826110c6576000855561110d565b82601f106110df57805160ff191683800117855561110d565b8280016001018555821561110d579182015b8281111561110c5782518255916020019190600101906110f1565b5b50905061111a919061111e565b5090565b5b8082111561113757600081600090555060010161111f565b5090565b600081519050919050565b600082825260208201905092915050565b60005b8381101561117557808201518184015260208101905061115a565b83811115611184576000848401525b50505050565b6000601f19601f8301169050919050565b60006111a68261113b565b6111b08185611146565b93506111c0818560208601611157565b6111c98161118a565b840191505092915050565b600060208201905081810360008301526111ee818461119b565b905092915050565b6000819050919050565b611209816111f6565b82525050565b60006020820190506112246000830184611200565b92915050565b6000604051905090565b600080fd5b600080fd5b611247816111f6565b811461125257600080fd5b50565b6000813590506112648161123e565b92915050565b600080fd5b600080fd5b7f4e487b7100000000000000000000000000000000000000000000000000000000600052604160045260246000fd5b6112ac8261118a565b810181811067ffffffffffffffff821117156112cb576112ca611274565b5b80604052505050565b60006112de61122a565b90506112ea82826112a3565b919050565b600067ffffffffffffffff82111561130a57611309611274565b5b6113138261118a565b9050602081019050919050565b82818337600083830152505050565b600061134261133d846112ef565b6112d4565b90508281526020810184848401111561135e5761135d61126f565b5b611369848285611320565b509392505050565b600082601f8301126113865761138561126a565b5b813561139684826020860161132f565b91505092915050565b600080604083850312156113b6576113b5611234565b5b60006113c485828601611255565b925050602083013567ffffffffffffffff8111156113e5576113e4611239565b5b6113f185828601611371565b9150509250929050565b600073ffffffffffffffffffffffffffffffffffffffff82169050919050565b6000611426826113fb565b9050919050565b6114368161141b565b811461144157600080fd5b50565b6000813590506114538161142d565b92915050565b60006020828403121561146f5761146e611234565b5b600061147d84828501611444565b91505092915050565b60008115159050919050565b61149b81611486565b82525050565b60006040820190506114b66000830185611200565b6114c36020830184611492565b9392505050565b6000602082840312156114e0576114df611234565b5b60006114ee84828501611255565b91505092915050565b6115008161141b565b82525050565b600060a08201905061151b6000830188611200565b6115286020830187611200565b61153560408301866114f7565b6115426060830185611492565b8181036080830152611554818461119b565b90509695505050505050565b600061010082019050611576600083018b611200565b611583602083018a611200565b6115906040830189611200565b61159d60608301886114f7565b6115aa60808301876114f7565b6115b760a0830186611200565b6115c460c0830185611200565b6115d160e0830184611200565b9998505050505050505050565b60006020820190506115f360008301846114f7565b92915050565b60008060006060848603121561161257611611611234565b5b600061162086828701611255565b935050602061163186828701611255565b925050604061164286828701611444565b9150509250925092565b7f4e487b7100000000000000000000000000000000000000000000000000000000600052602260045260246000fd5b6000600282049050600182168061169357607f821691505b602082108114156116a7576116a661164c565b5b50919050565b7f4e487b7100000000000000000000000000000000000000000000000000000000600052601160045260246000fd5b60006116e7826111f6565b91507fffffffffffffffffffffffffffffffffffffffffffffffffffffffffffffffff82141561171a576117196116ad565b5b600182019050919050565b6000611730826111f6565b915061173b836111f6565b9250817fffffffffffffffffffffffffffffffffffffffffffffffffffffffffffffffff0483118215151615611774576117736116ad565b5b828202905092915050565b600060608201905061179460008301866114f7565b6117a160208301856114f7565b6117ae6040830184611200565b949350505050565b6117bf81611486565b81146117ca57600080fd5b50565b6000815190506117dc816117b6565b92915050565b6000602082840312156117f8576117f7611234565b5b6000611806848285016117cd565b91505092915050565b6000819050919050565b6000819050919050565b600061183e6118396118348461180f565b611819565b6111f6565b9050919050565b61184e81611823565b82525050565b600060608201905061186960008301866114f7565b61187660208301856114f7565b6118836040830184611845565b94935050505056fea26469706673582212200bf871248408527b7daf3030b6edd15f17ec22eae1486946f814e7a2a56aade264736f6c634300080b0033",
  "immutableReferences": {},
  "source": "// SPDX-License-Identifier: MIT\r\n\r\npragma solidity ^0.8.2;\r\n\r\nimport \"./Fiducia.sol\";\r\n\r\ncontract Cantina {\r\n    Fiducia private _token;\r\n\r\n    function doStuff(address recv) external returns (address) {\r\n        address from = msg.sender;\r\n        _token.transferFrom(from, recv, 100);\r\n    }\r\n\r\n    struct details {\r\n        uint256 completedComissions;\r\n        bool isActive;\r\n    }\r\n    struct productStruct {\r\n        uint256 id;\r\n        uint256 price;\r\n        address owner;\r\n        bool purchased;\r\n        string name;\r\n    }\r\n    struct commissionStruct {\r\n        uint256 id;\r\n        uint256 rate;\r\n        uint256 timeHour;\r\n        address requestor;\r\n        address fulfiller;\r\n        uint256 requestStatus;\r\n        uint256 paymentStatus;\r\n        uint256 completionStatus;\r\n    }\r\n    string str;\r\n\r\n    constructor(Fiducia token) {\r\n        str = \"Ashray A Sripathi\";\r\n        _token = token;\r\n    }\r\n\r\n    function getValue() public view returns (string memory) {\r\n        return str;\r\n    }\r\n\r\n    mapping(address => uint256) public userType;\r\n\r\n    mapping(address => details) public userDetails;\r\n    mapping(uint256 => productStruct) public prodDetails;\r\n    mapping(uint256 => commissionStruct) public comissionDetails;\r\n\r\n    uint256 public nrComissions = 0;\r\n    uint256 public nrProducts = 0;\r\n\r\n    modifier onlyCreator() {\r\n        require(userType[msg.sender] == 1);\r\n        _;\r\n    }\r\n    modifier onlyCustomer() {\r\n        require(userType[msg.sender] == 2);\r\n        _;\r\n    }\r\n\r\n    function registerCreator() public payable {\r\n        address creator = msg.sender;\r\n        userType[creator] = 1;\r\n        uint256 deposit = msg.value;\r\n        if (deposit < 10) {\r\n            revert();\r\n        }\r\n    }\r\n\r\n    function registerCustomer() public {\r\n        address customer = msg.sender;\r\n        userType[customer] = 2;\r\n    }\r\n\r\n    function payComission(uint256 _id) public payable onlyCustomer {\r\n        address creator = comissionDetails[_id].fulfiller;\r\n        require(comissionDetails[_id].requestor == msg.sender);\r\n        address customer = msg.sender;\r\n        uint256 amount = comissionDetails[_id].rate *\r\n            comissionDetails[_id].timeHour;\r\n        comissionDetails[_id].paymentStatus = 1;\r\n        payable(creator).transfer(amount);\r\n        address from = msg.sender;\r\n        _token.transferFrom(from, creator, amount);\r\n    }\r\n\r\n    function requestCommission(\r\n        uint256 _rate,\r\n        uint256 _hrs,\r\n        address _creator\r\n    ) public onlyCustomer {\r\n        comissionDetails[nrComissions].id = nrComissions;\r\n        comissionDetails[nrComissions].requestor = msg.sender;\r\n        comissionDetails[nrComissions].fulfiller = _creator;\r\n        comissionDetails[nrComissions].rate = _rate;\r\n        comissionDetails[nrComissions].timeHour = _hrs;\r\n        comissionDetails[nrComissions].requestStatus = 0;\r\n        comissionDetails[nrComissions].completionStatus = 0;\r\n        nrComissions++;\r\n    }\r\n\r\n    function responseCommission(uint256 _id) public onlyCreator {\r\n        require(comissionDetails[_id].fulfiller == msg.sender);\r\n        comissionDetails[_id].requestStatus = 1;\r\n    }\r\n\r\n    function completeCommission(uint256 _id) public {\r\n        require(comissionDetails[_id].fulfiller == msg.sender);\r\n        require(comissionDetails[_id].paymentStatus == 1);\r\n        comissionDetails[_id].completionStatus = 1;\r\n    }\r\n\r\n    function createListing(uint256 _price, string memory _name)\r\n        public\r\n        onlyCreator\r\n    {\r\n        require(_price > 0);\r\n        require(bytes(_name).length > 0);\r\n        address creator = msg.sender;\r\n        prodDetails[nrProducts].id = nrProducts;\r\n        prodDetails[nrProducts].price = _price;\r\n        prodDetails[nrProducts].owner = creator;\r\n        prodDetails[nrProducts].purchased = false;\r\n        prodDetails[nrProducts].name = _name;\r\n        nrProducts++;\r\n    }\r\n\r\n    function buy(uint256 _productID) public payable onlyCustomer {\r\n        uint256 _price = prodDetails[_productID].price;\r\n        //require(msg.value >= _price);\r\n        require(!prodDetails[_productID].purchased);\r\n        address _creator = prodDetails[_productID].owner;\r\n        prodDetails[_productID].owner = msg.sender;\r\n        prodDetails[_productID].purchased = true;\r\n        //(payable(_creator)).transfer(msg.value);\r\n\r\n        address from = msg.sender;\r\n        _token.transferFrom(from, _creator, _price);\r\n    }\r\n\r\n    function balanceOfSC() public returns (uint256) {\r\n        return address(this).balance;\r\n    }\r\n}\r\n",
  "sourcePath": "C:\\Users\\ashra\\OneDrive\\Desktop\\College\\UB\\CSE 526\\Project\\cantina-dapp\\cantina-contracts\\contracts\\cantina.sol",
  "compiler": {
    "name": "solc",
    "version": "0.8.11+commit.d7f03943.Emscripten.clang"
  },
  "schemaVersion": "3.4.5",
  "updatedAt": "2022-05-09T01:38:30.723Z",
  "networkType": "ethereum",
  "devdoc": {
    "kind": "dev",
    "methods": {},
    "version": 1
  },
  "userdoc": {
    "kind": "user",
    "methods": {},
    "version": 1
  }
}